{
    "_format": "hh-sol-artifact-1",
    "contractName": "RoboPunksNFT",
    "sourceName": "contracts/RoboPunksNFT.sol",
    "abi": [
        {
            "inputs": [],
            "stateMutability": "payable",
            "type": "constructor"
        },
        {
            "inputs": [
                {
                    "internalType": "address",
                    "name": "sender",
                    "type": "address"
                },
                {
                    "internalType": "uint256",
                    "name": "tokenId",
                    "type": "uint256"
                },
                {
                    "internalType": "address",
                    "name": "owner",
                    "type": "address"
                }
            ],
            "name": "ERC721IncorrectOwner",
            "type": "error"
        },
        {
            "inputs": [
                {
                    "internalType": "address",
                    "name": "operator",
                    "type": "address"
                },
                {
                    "internalType": "uint256",
                    "name": "tokenId",
                    "type": "uint256"
                }
            ],
            "name": "ERC721InsufficientApproval",
            "type": "error"
        },
        {
            "inputs": [
                {
                    "internalType": "address",
                    "name": "approver",
                    "type": "address"
                }
            ],
            "name": "ERC721InvalidApprover",
            "type": "error"
        },
        {
            "inputs": [
                {
                    "internalType": "address",
                    "name": "operator",
                    "type": "address"
                }
            ],
            "name": "ERC721InvalidOperator",
            "type": "error"
        },
        {
            "inputs": [
                {
                    "internalType": "address",
                    "name": "owner",
                    "type": "address"
                }
            ],
            "name": "ERC721InvalidOwner",
            "type": "error"
        },
        {
            "inputs": [
                {
                    "internalType": "address",
                    "name": "receiver",
                    "type": "address"
                }
            ],
            "name": "ERC721InvalidReceiver",
            "type": "error"
        },
        {
            "inputs": [
                {
                    "internalType": "address",
                    "name": "sender",
                    "type": "address"
                }
            ],
            "name": "ERC721InvalidSender",
            "type": "error"
        },
        {
            "inputs": [
                {
                    "internalType": "uint256",
                    "name": "tokenId",
                    "type": "uint256"
                }
            ],
            "name": "ERC721NonexistentToken",
            "type": "error"
        },
        {
            "inputs": [
                {
                    "internalType": "address",
                    "name": "owner",
                    "type": "address"
                }
            ],
            "name": "OwnableInvalidOwner",
            "type": "error"
        },
        {
            "inputs": [
                {
                    "internalType": "address",
                    "name": "account",
                    "type": "address"
                }
            ],
            "name": "OwnableUnauthorizedAccount",
            "type": "error"
        },
        {
            "anonymous": false,
            "inputs": [
                {
                    "indexed": true,
                    "internalType": "address",
                    "name": "owner",
                    "type": "address"
                },
                {
                    "indexed": true,
                    "internalType": "address",
                    "name": "approved",
                    "type": "address"
                },
                {
                    "indexed": true,
                    "internalType": "uint256",
                    "name": "tokenId",
                    "type": "uint256"
                }
            ],
            "name": "Approval",
            "type": "event"
        },
        {
            "anonymous": false,
            "inputs": [
                {
                    "indexed": true,
                    "internalType": "address",
                    "name": "owner",
                    "type": "address"
                },
                {
                    "indexed": true,
                    "internalType": "address",
                    "name": "operator",
                    "type": "address"
                },
                {
                    "indexed": false,
                    "internalType": "bool",
                    "name": "approved",
                    "type": "bool"
                }
            ],
            "name": "ApprovalForAll",
            "type": "event"
        },
        {
            "anonymous": false,
            "inputs": [
                {
                    "indexed": true,
                    "internalType": "address",
                    "name": "previousOwner",
                    "type": "address"
                },
                {
                    "indexed": true,
                    "internalType": "address",
                    "name": "newOwner",
                    "type": "address"
                }
            ],
            "name": "OwnershipTransferred",
            "type": "event"
        },
        {
            "anonymous": false,
            "inputs": [
                {
                    "indexed": true,
                    "internalType": "address",
                    "name": "from",
                    "type": "address"
                },
                {
                    "indexed": true,
                    "internalType": "address",
                    "name": "to",
                    "type": "address"
                },
                {
                    "indexed": true,
                    "internalType": "uint256",
                    "name": "tokenId",
                    "type": "uint256"
                }
            ],
            "name": "Transfer",
            "type": "event"
        },
        {
            "inputs": [
                {
                    "internalType": "address",
                    "name": "to",
                    "type": "address"
                },
                {
                    "internalType": "uint256",
                    "name": "tokenId",
                    "type": "uint256"
                }
            ],
            "name": "approve",
            "outputs": [],
            "stateMutability": "nonpayable",
            "type": "function"
        },
        {
            "inputs": [
                {
                    "internalType": "address",
                    "name": "owner",
                    "type": "address"
                }
            ],
            "name": "balanceOf",
            "outputs": [
                {
                    "internalType": "uint256",
                    "name": "",
                    "type": "uint256"
                }
            ],
            "stateMutability": "view",
            "type": "function"
        },
        {
            "inputs": [
                {
                    "internalType": "uint256",
                    "name": "tokenId",
                    "type": "uint256"
                }
            ],
            "name": "getApproved",
            "outputs": [
                {
                    "internalType": "address",
                    "name": "",
                    "type": "address"
                }
            ],
            "stateMutability": "view",
            "type": "function"
        },
        {
            "inputs": [
                {
                    "internalType": "address",
                    "name": "owner",
                    "type": "address"
                },
                {
                    "internalType": "address",
                    "name": "operator",
                    "type": "address"
                }
            ],
            "name": "isApprovedForAll",
            "outputs": [
                {
                    "internalType": "bool",
                    "name": "",
                    "type": "bool"
                }
            ],
            "stateMutability": "view",
            "type": "function"
        },
        {
            "inputs": [],
            "name": "isPublicMintEnabled",
            "outputs": [
                {
                    "internalType": "bool",
                    "name": "",
                    "type": "bool"
                }
            ],
            "stateMutability": "view",
            "type": "function"
        },
        {
            "inputs": [],
            "name": "maxPerWallet",
            "outputs": [
                {
                    "internalType": "uint256",
                    "name": "",
                    "type": "uint256"
                }
            ],
            "stateMutability": "view",
            "type": "function"
        },
        {
            "inputs": [],
            "name": "maxSupply",
            "outputs": [
                {
                    "internalType": "uint256",
                    "name": "",
                    "type": "uint256"
                }
            ],
            "stateMutability": "view",
            "type": "function"
        },
        {
            "inputs": [
                {
                    "internalType": "uint256",
                    "name": "quantity_",
                    "type": "uint256"
                }
            ],
            "name": "mint",
            "outputs": [],
            "stateMutability": "payable",
            "type": "function"
        },
        {
            "inputs": [],
            "name": "mintPrice",
            "outputs": [
                {
                    "internalType": "uint256",
                    "name": "",
                    "type": "uint256"
                }
            ],
            "stateMutability": "view",
            "type": "function"
        },
        {
            "inputs": [],
            "name": "name",
            "outputs": [
                {
                    "internalType": "string",
                    "name": "",
                    "type": "string"
                }
            ],
            "stateMutability": "view",
            "type": "function"
        },
        {
            "inputs": [],
            "name": "owner",
            "outputs": [
                {
                    "internalType": "address",
                    "name": "",
                    "type": "address"
                }
            ],
            "stateMutability": "view",
            "type": "function"
        },
        {
            "inputs": [
                {
                    "internalType": "uint256",
                    "name": "tokenId",
                    "type": "uint256"
                }
            ],
            "name": "ownerOf",
            "outputs": [
                {
                    "internalType": "address",
                    "name": "",
                    "type": "address"
                }
            ],
            "stateMutability": "view",
            "type": "function"
        },
        {
            "inputs": [],
            "name": "renounceOwnership",
            "outputs": [],
            "stateMutability": "nonpayable",
            "type": "function"
        },
        {
            "inputs": [
                {
                    "internalType": "address",
                    "name": "from",
                    "type": "address"
                },
                {
                    "internalType": "address",
                    "name": "to",
                    "type": "address"
                },
                {
                    "internalType": "uint256",
                    "name": "tokenId",
                    "type": "uint256"
                }
            ],
            "name": "safeTransferFrom",
            "outputs": [],
            "stateMutability": "nonpayable",
            "type": "function"
        },
        {
            "inputs": [
                {
                    "internalType": "address",
                    "name": "from",
                    "type": "address"
                },
                {
                    "internalType": "address",
                    "name": "to",
                    "type": "address"
                },
                {
                    "internalType": "uint256",
                    "name": "tokenId",
                    "type": "uint256"
                },
                {
                    "internalType": "bytes",
                    "name": "data",
                    "type": "bytes"
                }
            ],
            "name": "safeTransferFrom",
            "outputs": [],
            "stateMutability": "nonpayable",
            "type": "function"
        },
        {
            "inputs": [
                {
                    "internalType": "address",
                    "name": "operator",
                    "type": "address"
                },
                {
                    "internalType": "bool",
                    "name": "approved",
                    "type": "bool"
                }
            ],
            "name": "setApprovalForAll",
            "outputs": [],
            "stateMutability": "nonpayable",
            "type": "function"
        },
        {
            "inputs": [
                {
                    "internalType": "string",
                    "name": "baseTokenUri_",
                    "type": "string"
                }
            ],
            "name": "setBaseTokenUri",
            "outputs": [],
            "stateMutability": "nonpayable",
            "type": "function"
        },
        {
            "inputs": [
                {
                    "internalType": "bool",
                    "name": "isPublicMintEnabled_",
                    "type": "bool"
                }
            ],
            "name": "setIsPublicMintEnabled",
            "outputs": [],
            "stateMutability": "nonpayable",
            "type": "function"
        },
        {
            "inputs": [
                {
                    "internalType": "address payable",
                    "name": "withdrawWallet_",
                    "type": "address"
                }
            ],
            "name": "setWithdrawWallet",
            "outputs": [],
            "stateMutability": "nonpayable",
            "type": "function"
        },
        {
            "inputs": [
                {
                    "internalType": "bytes4",
                    "name": "interfaceId",
                    "type": "bytes4"
                }
            ],
            "name": "supportsInterface",
            "outputs": [
                {
                    "internalType": "bool",
                    "name": "",
                    "type": "bool"
                }
            ],
            "stateMutability": "view",
            "type": "function"
        },
        {
            "inputs": [],
            "name": "symbol",
            "outputs": [
                {
                    "internalType": "string",
                    "name": "",
                    "type": "string"
                }
            ],
            "stateMutability": "view",
            "type": "function"
        },
        {
            "inputs": [
                {
                    "internalType": "uint256",
                    "name": "tokenId_",
                    "type": "uint256"
                }
            ],
            "name": "tokenURI",
            "outputs": [
                {
                    "internalType": "string",
                    "name": "",
                    "type": "string"
                }
            ],
            "stateMutability": "view",
            "type": "function"
        },
        {
            "inputs": [],
            "name": "totalSupply",
            "outputs": [
                {
                    "internalType": "uint256",
                    "name": "",
                    "type": "uint256"
                }
            ],
            "stateMutability": "view",
            "type": "function"
        },
        {
            "inputs": [
                {
                    "internalType": "address",
                    "name": "from",
                    "type": "address"
                },
                {
                    "internalType": "address",
                    "name": "to",
                    "type": "address"
                },
                {
                    "internalType": "uint256",
                    "name": "tokenId",
                    "type": "uint256"
                }
            ],
            "name": "transferFrom",
            "outputs": [],
            "stateMutability": "nonpayable",
            "type": "function"
        },
        {
            "inputs": [
                {
                    "internalType": "address",
                    "name": "newOwner",
                    "type": "address"
                }
            ],
            "name": "transferOwnership",
            "outputs": [],
            "stateMutability": "nonpayable",
            "type": "function"
        },
        {
            "inputs": [
                {
                    "internalType": "address",
                    "name": "",
                    "type": "address"
                }
            ],
            "name": "walletMints",
            "outputs": [
                {
                    "internalType": "uint256",
                    "name": "",
                    "type": "uint256"
                }
            ],
            "stateMutability": "view",
            "type": "function"
        },
        {
            "inputs": [],
            "name": "withdraw",
            "outputs": [],
            "stateMutability": "nonpayable",
            "type": "function"
        },
        {
            "inputs": [],
            "name": "withdrawWallet",
            "outputs": [
                {
                    "internalType": "address payable",
                    "name": "",
                    "type": "address"
                }
            ],
            "stateMutability": "view",
            "type": "function"
        }
    ],
    "bytecode": "0x6080604052336040518060400160405280600981526020017f526f626f50756e6b7300000000000000000000000000000000000000000000008152506040518060400160405280600281526020017f52500000000000000000000000000000000000000000000000000000000000008152508160009081620000829190620004cc565b508060019081620000949190620004cc565b505050600073ffffffffffffffffffffffffffffffffffffffff168173ffffffffffffffffffffffffffffffffffffffff16036200010c5760006040517f1e4fbdf7000000000000000000000000000000000000000000000000000000008152600401620001039190620005f8565b60405180910390fd5b6200011d816200018c60201b60201c565b5066470de4df82000060078190555060006008819055506103e86009819055506003600a8190555033600d60006101000a81548173ffffffffffffffffffffffffffffffffffffffff021916908373ffffffffffffffffffffffffffffffffffffffff16021790555062000615565b6000600660009054906101000a900473ffffffffffffffffffffffffffffffffffffffff16905081600660006101000a81548173ffffffffffffffffffffffffffffffffffffffff021916908373ffffffffffffffffffffffffffffffffffffffff1602179055508173ffffffffffffffffffffffffffffffffffffffff168173ffffffffffffffffffffffffffffffffffffffff167f8be0079c531659141344cd1fd0a4f28419497f9722a3daafe3b4186f6b6457e060405160405180910390a35050565b600081519050919050565b7f4e487b7100000000000000000000000000000000000000000000000000000000600052604160045260246000fd5b7f4e487b7100000000000000000000000000000000000000000000000000000000600052602260045260246000fd5b60006002820490506001821680620002d457607f821691505b602082108103620002ea57620002e96200028c565b5b50919050565b60008190508160005260206000209050919050565b60006020601f8301049050919050565b600082821b905092915050565b600060088302620003547fffffffffffffffffffffffffffffffffffffffffffffffffffffffffffffffff8262000315565b62000360868362000315565b95508019841693508086168417925050509392505050565b6000819050919050565b6000819050919050565b6000620003ad620003a7620003a18462000378565b62000382565b62000378565b9050919050565b6000819050919050565b620003c9836200038c565b620003e1620003d882620003b4565b84845462000322565b825550505050565b600090565b620003f8620003e9565b62000405818484620003be565b505050565b5b818110156200042d5762000421600082620003ee565b6001810190506200040b565b5050565b601f8211156200047c576200044681620002f0565b620004518462000305565b8101602085101562000461578190505b62000479620004708562000305565b8301826200040a565b50505b505050565b600082821c905092915050565b6000620004a16000198460080262000481565b1980831691505092915050565b6000620004bc83836200048e565b9150826002028217905092915050565b620004d78262000252565b67ffffffffffffffff811115620004f357620004f26200025d565b5b620004ff8254620002bb565b6200050c82828562000431565b600060209050601f8311600181146200054457600084156200052f578287015190505b6200053b8582620004ae565b865550620005ab565b601f1984166200055486620002f0565b60005b828110156200057e5784890151825560018201915060208501945060208101905062000557565b868310156200059e57848901516200059a601f8916826200048e565b8355505b6001600288020188555050505b505050505050565b600073ffffffffffffffffffffffffffffffffffffffff82169050919050565b6000620005e082620005b3565b9050919050565b620005f281620005d3565b82525050565b60006020820190506200060f6000830184620005e7565b92915050565b61315e80620006256000396000f3fe6080604052600436106101b75760003560e01c8063715018a6116100ec578063a22cb4651161008a578063d5abeb0111610064578063d5abeb01146105d7578063e985e9c514610602578063f0293fd31461063f578063f2fde38b1461067c576101b7565b8063a22cb46514610548578063b88d4fde14610571578063c87b56dd1461059a576101b7565b80639373f432116100c65780639373f432146104af57806395652cfa146104d857806395d89b4114610501578063a0712d681461052c576101b7565b8063715018a61461044257806385d178f4146104595780638da5cb5b14610484576101b7565b806323b872dd11610159578063453c231011610133578063453c2310146103725780636352211e1461039d5780636817c76c146103da57806370a0823114610405576101b7565b806323b872dd146103095780633ccfd60b1461033257806342842e0e14610349576101b7565b8063081812fc11610195578063081812fc1461024f578063095ea7b31461028c57806318160ddd146102b55780632373ac22146102e0576101b7565b80630116bc2d146101bc57806301ffc9a7146101e757806306fdde0314610224575b600080fd5b3480156101c857600080fd5b506101d16106a5565b6040516101de9190612060565b60405180910390f35b3480156101f357600080fd5b5061020e600480360381019061020991906120e7565b6106b8565b60405161021b9190612060565b60405180910390f35b34801561023057600080fd5b5061023961079a565b60405161024691906121a4565b60405180910390f35b34801561025b57600080fd5b50610276600480360381019061027191906121fc565b61082c565b604051610283919061226a565b60405180910390f35b34801561029857600080fd5b506102b360048036038101906102ae91906122b1565b610848565b005b3480156102c157600080fd5b506102ca61085e565b6040516102d79190612300565b60405180910390f35b3480156102ec57600080fd5b5061030760048036038101906103029190612347565b610864565b005b34801561031557600080fd5b50610330600480360381019061032b9190612374565b610889565b005b34801561033e57600080fd5b5061034761098b565b005b34801561035557600080fd5b50610370600480360381019061036b9190612374565b610af5565b005b34801561037e57600080fd5b50610387610b15565b6040516103949190612300565b60405180910390f35b3480156103a957600080fd5b506103c460048036038101906103bf91906121fc565b610b1b565b6040516103d1919061226a565b60405180910390f35b3480156103e657600080fd5b506103ef610b2d565b6040516103fc9190612300565b60405180910390f35b34801561041157600080fd5b5061042c600480360381019061042791906123c7565b610b33565b6040516104399190612300565b60405180910390f35b34801561044e57600080fd5b50610457610bed565b005b34801561046557600080fd5b5061046e610c01565b60405161047b9190612415565b60405180910390f35b34801561049057600080fd5b50610499610c27565b6040516104a6919061226a565b60405180910390f35b3480156104bb57600080fd5b506104d660048036038101906104d1919061245c565b610c51565b005b3480156104e457600080fd5b506104ff60048036038101906104fa91906124ee565b610c9d565b005b34801561050d57600080fd5b50610516610cbb565b60405161052391906121a4565b60405180910390f35b610546600480360381019061054191906121fc565b610d4d565b005b34801561055457600080fd5b5061056f600480360381019061056a919061253b565b610f74565b005b34801561057d57600080fd5b50610598600480360381019061059391906126ab565b610f8a565b005b3480156105a657600080fd5b506105c160048036038101906105bc91906121fc565b610faf565b6040516105ce91906121a4565b60405180910390f35b3480156105e357600080fd5b506105ec61105a565b6040516105f99190612300565b60405180910390f35b34801561060e57600080fd5b506106296004803603810190610624919061272e565b611060565b6040516106369190612060565b60405180910390f35b34801561064b57600080fd5b50610666600480360381019061066191906123c7565b6110f4565b6040516106739190612300565b60405180910390f35b34801561068857600080fd5b506106a3600480360381019061069e91906123c7565b61110c565b005b600b60009054906101000a900460ff1681565b60007f80ac58cd000000000000000000000000000000000000000000000000000000007bffffffffffffffffffffffffffffffffffffffffffffffffffffffff1916827bffffffffffffffffffffffffffffffffffffffffffffffffffffffff1916148061078357507f5b5e139f000000000000000000000000000000000000000000000000000000007bffffffffffffffffffffffffffffffffffffffffffffffffffffffff1916827bffffffffffffffffffffffffffffffffffffffffffffffffffffffff1916145b80610793575061079282611192565b5b9050919050565b6060600080546107a99061279d565b80601f01602080910402602001604051908101604052809291908181526020018280546107d59061279d565b80156108225780601f106107f757610100808354040283529160200191610822565b820191906000526020600020905b81548152906001019060200180831161080557829003601f168201915b5050505050905090565b6000610837826111fc565b5061084182611284565b9050919050565b61085a82826108556112c1565b6112c9565b5050565b60085481565b61086c6112db565b80600b60006101000a81548160ff02191690831515021790555050565b600073ffffffffffffffffffffffffffffffffffffffff168273ffffffffffffffffffffffffffffffffffffffff16036108fb5760006040517f64a0ae920000000000000000000000000000000000000000000000000000000081526004016108f2919061226a565b60405180910390fd5b600061090f838361090a6112c1565b611362565b90508373ffffffffffffffffffffffffffffffffffffffff168173ffffffffffffffffffffffffffffffffffffffff1614610985578382826040517f64283d7b00000000000000000000000000000000000000000000000000000000815260040161097c939291906127ce565b60405180910390fd5b50505050565b6109936112db565b600073ffffffffffffffffffffffffffffffffffffffff16600d60009054906101000a900473ffffffffffffffffffffffffffffffffffffffff1673ffffffffffffffffffffffffffffffffffffffff1603610a24576040517f08c379a0000000000000000000000000000000000000000000000000000000008152600401610a1b90612851565b60405180910390fd5b6000600d60009054906101000a900473ffffffffffffffffffffffffffffffffffffffff1673ffffffffffffffffffffffffffffffffffffffff1647604051610a6c906128a2565b60006040518083038185875af1925050503d8060008114610aa9576040519150601f19603f3d011682016040523d82523d6000602084013e610aae565b606091505b5050905080610af2576040517f08c379a0000000000000000000000000000000000000000000000000000000008152600401610ae990612903565b60405180910390fd5b50565b610b1083838360405180602001604052806000815250610f8a565b505050565b600a5481565b6000610b26826111fc565b9050919050565b60075481565b60008073ffffffffffffffffffffffffffffffffffffffff168273ffffffffffffffffffffffffffffffffffffffff1603610ba65760006040517f89c62b64000000000000000000000000000000000000000000000000000000008152600401610b9d919061226a565b60405180910390fd5b600360008373ffffffffffffffffffffffffffffffffffffffff1673ffffffffffffffffffffffffffffffffffffffff168152602001908152602001600020549050919050565b610bf56112db565b610bff600061157c565b565b600d60009054906101000a900473ffffffffffffffffffffffffffffffffffffffff1681565b6000600660009054906101000a900473ffffffffffffffffffffffffffffffffffffffff16905090565b610c596112db565b80600d60006101000a81548173ffffffffffffffffffffffffffffffffffffffff021916908373ffffffffffffffffffffffffffffffffffffffff16021790555050565b610ca56112db565b8181600c9182610cb6929190612ada565b505050565b606060018054610cca9061279d565b80601f0160208091040260200160405190810160405280929190818152602001828054610cf69061279d565b8015610d435780601f10610d1857610100808354040283529160200191610d43565b820191906000526020600020905b815481529060010190602001808311610d2657829003601f168201915b5050505050905090565b600b60009054906101000a900460ff16610d9c576040517f08c379a0000000000000000000000000000000000000000000000000000000008152600401610d9390612bf6565b60405180910390fd5b60075481610daa9190612c45565b3414610deb576040517f08c379a0000000000000000000000000000000000000000000000000000000008152600401610de290612cd3565b60405180910390fd5b60095481600854610dfc9190612cf3565b1115610e3d576040517f08c379a0000000000000000000000000000000000000000000000000000000008152600401610e3490612d73565b60405180910390fd5b600a5481600e60003373ffffffffffffffffffffffffffffffffffffffff1673ffffffffffffffffffffffffffffffffffffffff16815260200190815260200160002054610e8b9190612cf3565b1115610ecc576040517f08c379a0000000000000000000000000000000000000000000000000000000008152600401610ec390612ddf565b60405180910390fd5b60005b81811015610f1a5760006001600854610ee89190612cf3565b905060086000815480929190610efd90612dff565b9190505550610f0c3382611642565b508080600101915050610ecf565b5080600e60003373ffffffffffffffffffffffffffffffffffffffff1673ffffffffffffffffffffffffffffffffffffffff1681526020019081526020016000206000828254610f6a9190612cf3565b9250508190555050565b610f86610f7f6112c1565b8383611660565b5050565b610f95848484610889565b610fa9610fa06112c1565b858585856117cf565b50505050565b6060600073ffffffffffffffffffffffffffffffffffffffff16610fd283611980565b73ffffffffffffffffffffffffffffffffffffffff1603611028576040517f08c379a000000000000000000000000000000000000000000000000000000000815260040161101f90612e93565b60405180910390fd5b600c611033836119bd565b604051602001611044929190612fbe565b6040516020818303038152906040529050919050565b60095481565b6000600560008473ffffffffffffffffffffffffffffffffffffffff1673ffffffffffffffffffffffffffffffffffffffff16815260200190815260200160002060008373ffffffffffffffffffffffffffffffffffffffff1673ffffffffffffffffffffffffffffffffffffffff16815260200190815260200160002060009054906101000a900460ff16905092915050565b600e6020528060005260406000206000915090505481565b6111146112db565b600073ffffffffffffffffffffffffffffffffffffffff168173ffffffffffffffffffffffffffffffffffffffff16036111865760006040517f1e4fbdf700000000000000000000000000000000000000000000000000000000815260040161117d919061226a565b60405180910390fd5b61118f8161157c565b50565b60007f01ffc9a7000000000000000000000000000000000000000000000000000000007bffffffffffffffffffffffffffffffffffffffffffffffffffffffff1916827bffffffffffffffffffffffffffffffffffffffffffffffffffffffff1916149050919050565b60008061120883611980565b9050600073ffffffffffffffffffffffffffffffffffffffff168173ffffffffffffffffffffffffffffffffffffffff160361127b57826040517f7e2732890000000000000000000000000000000000000000000000000000000081526004016112729190612300565b60405180910390fd5b80915050919050565b60006004600083815260200190815260200160002060009054906101000a900473ffffffffffffffffffffffffffffffffffffffff169050919050565b600033905090565b6112d68383836001611a8b565b505050565b6112e36112c1565b73ffffffffffffffffffffffffffffffffffffffff16611301610c27565b73ffffffffffffffffffffffffffffffffffffffff1614611360576113246112c1565b6040517f118cdaa7000000000000000000000000000000000000000000000000000000008152600401611357919061226a565b60405180910390fd5b565b60008061136e84611980565b9050600073ffffffffffffffffffffffffffffffffffffffff168373ffffffffffffffffffffffffffffffffffffffff16146113b0576113af818486611c50565b5b600073ffffffffffffffffffffffffffffffffffffffff168173ffffffffffffffffffffffffffffffffffffffff1614611441576113f2600085600080611a8b565b6001600360008373ffffffffffffffffffffffffffffffffffffffff1673ffffffffffffffffffffffffffffffffffffffff168152602001908152602001600020600082825403925050819055505b600073ffffffffffffffffffffffffffffffffffffffff168573ffffffffffffffffffffffffffffffffffffffff16146114c4576001600360008773ffffffffffffffffffffffffffffffffffffffff1673ffffffffffffffffffffffffffffffffffffffff168152602001908152602001600020600082825401925050819055505b846002600086815260200190815260200160002060006101000a81548173ffffffffffffffffffffffffffffffffffffffff021916908373ffffffffffffffffffffffffffffffffffffffff160217905550838573ffffffffffffffffffffffffffffffffffffffff168273ffffffffffffffffffffffffffffffffffffffff167fddf252ad1be2c89b69c2b068fc378daa952ba7f163c4a11628f55a4df523b3ef60405160405180910390a4809150509392505050565b6000600660009054906101000a900473ffffffffffffffffffffffffffffffffffffffff16905081600660006101000a81548173ffffffffffffffffffffffffffffffffffffffff021916908373ffffffffffffffffffffffffffffffffffffffff1602179055508173ffffffffffffffffffffffffffffffffffffffff168173ffffffffffffffffffffffffffffffffffffffff167f8be0079c531659141344cd1fd0a4f28419497f9722a3daafe3b4186f6b6457e060405160405180910390a35050565b61165c828260405180602001604052806000815250611d14565b5050565b600073ffffffffffffffffffffffffffffffffffffffff168273ffffffffffffffffffffffffffffffffffffffff16036116d157816040517f5b08ba180000000000000000000000000000000000000000000000000000000081526004016116c8919061226a565b60405180910390fd5b80600560008573ffffffffffffffffffffffffffffffffffffffff1673ffffffffffffffffffffffffffffffffffffffff16815260200190815260200160002060008473ffffffffffffffffffffffffffffffffffffffff1673ffffffffffffffffffffffffffffffffffffffff16815260200190815260200160002060006101000a81548160ff0219169083151502179055508173ffffffffffffffffffffffffffffffffffffffff168373ffffffffffffffffffffffffffffffffffffffff167f17307eab39ab6107e8899845ad3d59bd9653f200f220920489ca2b5937696c31836040516117c29190612060565b60405180910390a3505050565b60008373ffffffffffffffffffffffffffffffffffffffff163b1115611979578273ffffffffffffffffffffffffffffffffffffffff1663150b7a02868685856040518563ffffffff1660e01b815260040161182e9493929190613042565b6020604051808303816000875af192505050801561186a57506040513d601f19601f8201168201806040525081019061186791906130a3565b60015b6118ee573d806000811461189a576040519150601f19603f3d011682016040523d82523d6000602084013e61189f565b606091505b5060008151036118e657836040517f64a0ae920000000000000000000000000000000000000000000000000000000081526004016118dd919061226a565b60405180910390fd5b805181602001fd5b63150b7a0260e01b7bffffffffffffffffffffffffffffffffffffffffffffffffffffffff1916817bffffffffffffffffffffffffffffffffffffffffffffffffffffffff19161461197757836040517f64a0ae9200000000000000000000000000000000000000000000000000000000815260040161196e919061226a565b60405180910390fd5b505b5050505050565b60006002600083815260200190815260200160002060009054906101000a900473ffffffffffffffffffffffffffffffffffffffff169050919050565b6060600060016119cc84611d38565b01905060008167ffffffffffffffff8111156119eb576119ea612580565b5b6040519080825280601f01601f191660200182016040528015611a1d5781602001600182028036833780820191505090505b509050600082602001820190505b600115611a80578080600190039150507f3031323334353637383961626364656600000000000000000000000000000000600a86061a8153600a8581611a7457611a736130d0565b5b04945060008503611a2b575b819350505050919050565b8080611ac45750600073ffffffffffffffffffffffffffffffffffffffff168273ffffffffffffffffffffffffffffffffffffffff1614155b15611bf8576000611ad4846111fc565b9050600073ffffffffffffffffffffffffffffffffffffffff168373ffffffffffffffffffffffffffffffffffffffff1614158015611b3f57508273ffffffffffffffffffffffffffffffffffffffff168173ffffffffffffffffffffffffffffffffffffffff1614155b8015611b525750611b508184611060565b155b15611b9457826040517fa9fbf51f000000000000000000000000000000000000000000000000000000008152600401611b8b919061226a565b60405180910390fd5b8115611bf657838573ffffffffffffffffffffffffffffffffffffffff168273ffffffffffffffffffffffffffffffffffffffff167f8c5be1e5ebec7d5bd14f71427d1e84f3dd0314c0f7b2291e5b200ac8c7c3b92560405160405180910390a45b505b836004600085815260200190815260200160002060006101000a81548173ffffffffffffffffffffffffffffffffffffffff021916908373ffffffffffffffffffffffffffffffffffffffff16021790555050505050565b611c5b838383611e8b565b611d0f57600073ffffffffffffffffffffffffffffffffffffffff168373ffffffffffffffffffffffffffffffffffffffff1603611cd057806040517f7e273289000000000000000000000000000000000000000000000000000000008152600401611cc79190612300565b60405180910390fd5b81816040517f177e802f000000000000000000000000000000000000000000000000000000008152600401611d069291906130ff565b60405180910390fd5b505050565b611d1e8383611f4c565b611d33611d296112c1565b60008585856117cf565b505050565b600080600090507a184f03e93ff9f4daa797ed6e38ed64bf6a1f0100000000000000008310611d96577a184f03e93ff9f4daa797ed6e38ed64bf6a1f0100000000000000008381611d8c57611d8b6130d0565b5b0492506040810190505b6d04ee2d6d415b85acef81000000008310611dd3576d04ee2d6d415b85acef81000000008381611dc957611dc86130d0565b5b0492506020810190505b662386f26fc100008310611e0257662386f26fc100008381611df857611df76130d0565b5b0492506010810190505b6305f5e1008310611e2b576305f5e1008381611e2157611e206130d0565b5b0492506008810190505b6127108310611e50576127108381611e4657611e456130d0565b5b0492506004810190505b60648310611e735760648381611e6957611e686130d0565b5b0492506002810190505b600a8310611e82576001810190505b80915050919050565b60008073ffffffffffffffffffffffffffffffffffffffff168373ffffffffffffffffffffffffffffffffffffffff1614158015611f4357508273ffffffffffffffffffffffffffffffffffffffff168473ffffffffffffffffffffffffffffffffffffffff161480611f045750611f038484611060565b5b80611f4257508273ffffffffffffffffffffffffffffffffffffffff16611f2a83611284565b73ffffffffffffffffffffffffffffffffffffffff16145b5b90509392505050565b600073ffffffffffffffffffffffffffffffffffffffff168273ffffffffffffffffffffffffffffffffffffffff1603611fbe5760006040517f64a0ae92000000000000000000000000000000000000000000000000000000008152600401611fb5919061226a565b60405180910390fd5b6000611fcc83836000611362565b9050600073ffffffffffffffffffffffffffffffffffffffff168173ffffffffffffffffffffffffffffffffffffffff16146120405760006040517f73c6ac6e000000000000000000000000000000000000000000000000000000008152600401612037919061226a565b60405180910390fd5b505050565b60008115159050919050565b61205a81612045565b82525050565b60006020820190506120756000830184612051565b92915050565b6000604051905090565b600080fd5b600080fd5b60007fffffffff0000000000000000000000000000000000000000000000000000000082169050919050565b6120c48161208f565b81146120cf57600080fd5b50565b6000813590506120e1816120bb565b92915050565b6000602082840312156120fd576120fc612085565b5b600061210b848285016120d2565b91505092915050565b600081519050919050565b600082825260208201905092915050565b60005b8381101561214e578082015181840152602081019050612133565b60008484015250505050565b6000601f19601f8301169050919050565b600061217682612114565b612180818561211f565b9350612190818560208601612130565b6121998161215a565b840191505092915050565b600060208201905081810360008301526121be818461216b565b905092915050565b6000819050919050565b6121d9816121c6565b81146121e457600080fd5b50565b6000813590506121f6816121d0565b92915050565b60006020828403121561221257612211612085565b5b6000612220848285016121e7565b91505092915050565b600073ffffffffffffffffffffffffffffffffffffffff82169050919050565b600061225482612229565b9050919050565b61226481612249565b82525050565b600060208201905061227f600083018461225b565b92915050565b61228e81612249565b811461229957600080fd5b50565b6000813590506122ab81612285565b92915050565b600080604083850312156122c8576122c7612085565b5b60006122d68582860161229c565b92505060206122e7858286016121e7565b9150509250929050565b6122fa816121c6565b82525050565b600060208201905061231560008301846122f1565b92915050565b61232481612045565b811461232f57600080fd5b50565b6000813590506123418161231b565b92915050565b60006020828403121561235d5761235c612085565b5b600061236b84828501612332565b91505092915050565b60008060006060848603121561238d5761238c612085565b5b600061239b8682870161229c565b93505060206123ac8682870161229c565b92505060406123bd868287016121e7565b9150509250925092565b6000602082840312156123dd576123dc612085565b5b60006123eb8482850161229c565b91505092915050565b60006123ff82612229565b9050919050565b61240f816123f4565b82525050565b600060208201905061242a6000830184612406565b92915050565b612439816123f4565b811461244457600080fd5b50565b60008135905061245681612430565b92915050565b60006020828403121561247257612471612085565b5b600061248084828501612447565b91505092915050565b600080fd5b600080fd5b600080fd5b60008083601f8401126124ae576124ad612489565b5b8235905067ffffffffffffffff8111156124cb576124ca61248e565b5b6020830191508360018202830111156124e7576124e6612493565b5b9250929050565b6000806020838503121561250557612504612085565b5b600083013567ffffffffffffffff8111156125235761252261208a565b5b61252f85828601612498565b92509250509250929050565b6000806040838503121561255257612551612085565b5b60006125608582860161229c565b925050602061257185828601612332565b9150509250929050565b600080fd5b7f4e487b7100000000000000000000000000000000000000000000000000000000600052604160045260246000fd5b6125b88261215a565b810181811067ffffffffffffffff821117156125d7576125d6612580565b5b80604052505050565b60006125ea61207b565b90506125f682826125af565b919050565b600067ffffffffffffffff82111561261657612615612580565b5b61261f8261215a565b9050602081019050919050565b82818337600083830152505050565b600061264e612649846125fb565b6125e0565b90508281526020810184848401111561266a5761266961257b565b5b61267584828561262c565b509392505050565b600082601f83011261269257612691612489565b5b81356126a284826020860161263b565b91505092915050565b600080600080608085870312156126c5576126c4612085565b5b60006126d38782880161229c565b94505060206126e48782880161229c565b93505060406126f5878288016121e7565b925050606085013567ffffffffffffffff8111156127165761271561208a565b5b6127228782880161267d565b91505092959194509250565b6000806040838503121561274557612744612085565b5b60006127538582860161229c565b92505060206127648582860161229c565b9150509250929050565b7f4e487b7100000000000000000000000000000000000000000000000000000000600052602260045260246000fd5b600060028204905060018216806127b557607f821691505b6020821081036127c8576127c761276e565b5b50919050565b60006060820190506127e3600083018661225b565b6127f060208301856122f1565b6127fd604083018461225b565b949350505050565b7f57697468647261772077616c6c6574206e6f7420736574000000000000000000600082015250565b600061283b60178361211f565b915061284682612805565b602082019050919050565b6000602082019050818103600083015261286a8161282e565b9050919050565b600081905092915050565b50565b600061288c600083612871565b91506128978261287c565b600082019050919050565b60006128ad8261287f565b9150819050919050565b7f7769746864726177206661696c65640000000000000000000000000000000000600082015250565b60006128ed600f8361211f565b91506128f8826128b7565b602082019050919050565b6000602082019050818103600083015261291c816128e0565b9050919050565b600082905092915050565b60008190508160005260206000209050919050565b60006020601f8301049050919050565b600082821b905092915050565b6000600883026129907fffffffffffffffffffffffffffffffffffffffffffffffffffffffffffffffff82612953565b61299a8683612953565b95508019841693508086168417925050509392505050565b6000819050919050565b60006129d76129d26129cd846121c6565b6129b2565b6121c6565b9050919050565b6000819050919050565b6129f1836129bc565b612a056129fd826129de565b848454612960565b825550505050565b600090565b612a1a612a0d565b612a258184846129e8565b505050565b5b81811015612a4957612a3e600082612a12565b600181019050612a2b565b5050565b601f821115612a8e57612a5f8161292e565b612a6884612943565b81016020851015612a77578190505b612a8b612a8385612943565b830182612a2a565b50505b505050565b600082821c905092915050565b6000612ab160001984600802612a93565b1980831691505092915050565b6000612aca8383612aa0565b9150826002028217905092915050565b612ae48383612923565b67ffffffffffffffff811115612afd57612afc612580565b5b612b07825461279d565b612b12828285612a4d565b6000601f831160018114612b415760008415612b2f578287013590505b612b398582612abe565b865550612ba1565b601f198416612b4f8661292e565b60005b82811015612b7757848901358255600182019150602085019450602081019050612b52565b86831015612b945784890135612b90601f891682612aa0565b8355505b6001600288020188555050505b50505050505050565b7f6d696e74696e67206e6f7420656e61626c656400000000000000000000000000600082015250565b6000612be060138361211f565b9150612beb82612baa565b602082019050919050565b60006020820190508181036000830152612c0f81612bd3565b9050919050565b7f4e487b7100000000000000000000000000000000000000000000000000000000600052601160045260246000fd5b6000612c50826121c6565b9150612c5b836121c6565b9250828202612c69816121c6565b91508282048414831517612c8057612c7f612c16565b5b5092915050565b7f77726f6e67206d696e742076616c756500000000000000000000000000000000600082015250565b6000612cbd60108361211f565b9150612cc882612c87565b602082019050919050565b60006020820190508181036000830152612cec81612cb0565b9050919050565b6000612cfe826121c6565b9150612d09836121c6565b9250828201905080821115612d2157612d20612c16565b5b92915050565b7f657863656564206d617820737570706c79000000000000000000000000000000600082015250565b6000612d5d60118361211f565b9150612d6882612d27565b602082019050919050565b60006020820190508181036000830152612d8c81612d50565b9050919050565b7f657863656564206d61782077616c6c6574000000000000000000000000000000600082015250565b6000612dc960118361211f565b9150612dd482612d93565b602082019050919050565b60006020820190508181036000830152612df881612dbc565b9050919050565b6000612e0a826121c6565b91507fffffffffffffffffffffffffffffffffffffffffffffffffffffffffffffffff8203612e3c57612e3b612c16565b5b600182019050919050565b7f55524920717565727920666f72206e6f6e6578697374656e7420746f6b656e00600082015250565b6000612e7d601f8361211f565b9150612e8882612e47565b602082019050919050565b60006020820190508181036000830152612eac81612e70565b9050919050565b600081905092915050565b60008154612ecb8161279d565b612ed58186612eb3565b94506001821660008114612ef05760018114612f0557612f38565b60ff1983168652811515820286019350612f38565b612f0e8561292e565b60005b83811015612f3057815481890152600182019150602081019050612f11565b838801955050505b50505092915050565b6000612f4c82612114565b612f568185612eb3565b9350612f66818560208601612130565b80840191505092915050565b7f2e6a736f6e000000000000000000000000000000000000000000000000000000600082015250565b6000612fa8600583612eb3565b9150612fb382612f72565b600582019050919050565b6000612fca8285612ebe565b9150612fd68284612f41565b9150612fe182612f9b565b91508190509392505050565b600081519050919050565b600082825260208201905092915050565b600061301482612fed565b61301e8185612ff8565b935061302e818560208601612130565b6130378161215a565b840191505092915050565b6000608082019050613057600083018761225b565b613064602083018661225b565b61307160408301856122f1565b81810360608301526130838184613009565b905095945050505050565b60008151905061309d816120bb565b92915050565b6000602082840312156130b9576130b8612085565b5b60006130c78482850161308e565b91505092915050565b7f4e487b7100000000000000000000000000000000000000000000000000000000600052601260045260246000fd5b6000604082019050613114600083018561225b565b61312160208301846122f1565b939250505056fea26469706673582212209f727db6c71330d7932a6cf5292ddc3b32075fd3b305662477921bf83b00b66564736f6c63430008180033",
    "linkReferences": {},
    "deployedLinkReferences": {}
}